:020000040800F2
:1000000018970020450100084D0100084F01000825
:1000100051010008530100085501000800000000CC
:100020000000000000000000000000005701000870
:1000300059010008000000007FBB0008C1B600089D
:100040005F0100085F0100085F0100085F01000810
:100050005F0100085F0100085F0100085F01000800
:100060005F0100085F0100085F0100085F010008F0
:100070005F0100085F0100085F0100085F010008E0
:100080005F0100085F0100085F0100085F010008D0
:100090005F0100085F0100085F0100085F010008C0
:1000A0005F0100085F0100085F0100085F010008B0
:1000B0005F0100085F0100085F0100085F010008A0
:1000C0005F0100085F0100085F0100085F01000890
:1000D0005F0100085F0100085F0100085F01000880
:1000E0005F0100085F0100085F0100085F01000870
:1000F0005F0100085F0100085F0100085F01000860
:100100005F0100085F0100085F0100085F0100084F
:100110005F0100085F0100085F0100085F0100083F
:100120005F0100085F0100085F0100085F0100082F
:10013000DFF80CD00BF0D2FC00480047E1B9000812
:10014000189700200648804706480047FEE7FEE76C
:10015000FEE7FEE7FEE7FEE7FEE7FEE7FEE7FEE777
:1001600045020008310100080CB500200190009004
:100170006B48006840F480306949086000BF6848F7
:10018000006800F4003000900198401C0190009835
:1001900018B90198B0F5A06FF1D16148006810F46A
:1001A000003F02D00120009001E000200090009864
:1001B000012842D15B48006840F0100059490860AE
:1001C0000846006820F0030008600846006840F018
:1001D000020008605248406851494860084640683B
:1001E00048600846406840F48060486008464068BF
:1001F00020F47C1048600846406840F4E8104860ED
:100200000846006840F08070086000BF44480068FD
:1002100010F0007FFAD04248406820F003004049C7
:1002200048600846406840F00200486000BF3C4813
:10023000406800F00C000828F9D10CBD10B5FFF79C
:1002400093FF10BD10B53648006840F001003449F6
:10025000086008464068344908403149486008460B
:100260000068324908402E4908600846006820F4BA
:10027000802008600846406820F4FE0048604FF483
:100280001F008860FFF7DAFF4FF000602849086020
:1002900010BD10B5002100200022214B5B6803F047
:1002A0000C0121B1042906D0082928D107E0214BEF
:1002B000214C236027E01F4B1F4C236023E0184B89
:1002C0005B6803F47010164B5B6803F48032022302
:1002D00003EB904022B9194B4343174C23600DE0C8
:1002E0000F4B5B6813F4003F04D0144B4343124C94
:1002F000236003E00F4B43430F4C236003E00D4B9F
:100300000D4C236000BF00BF054B5B68C3F30313B4
:100310000B4CE15C084B1B68CB40074C236010BDC5
:1003200000100240002002400000FFF8FFFFF6FE30
:1003300008ED00E000127A000000002000093D00F6
:100340000400002010B50446CA48844208D10121A7
:10035000042000F027FB0021042000F023FB46E0EE
:10036000C548844208D10121082000F01BFB002170
:10037000082000F017FB3AE0C048844208D1012170
:10038000102000F00FFB0021102000F00BFB2EE0EE
:10039000BB48844208D10121202000F003FB00214A
:1003A000202000F0FFFA22E0B648844208D1012163
:1003B000402000F0F7FA0021402000F0F3FA16E0A8
:1003C000B148844208D10121802000F0EBFA0021DD
:1003D000802000F0E7FA0AE0AC48844207D101210E
:1003E000801500F0DFFA0021A01500F0DBFA10BD47
:1003F00010B50121084600F0D5FA0021012000F0D7
:10040000D1FA10BD2DE9F04102460025002600205A
:1004100000230024002791F803C00CF00F0591F889
:1004200003C01CF0100F03D091F802C04CEA050580
:1004300091F800C0BCF1000F31D0146800202BE00F
:100440004FF0010C0CFA00F3B1F800C00CEA0306FF
:100450009E4220D183004FF00F0C0CFA03F7BC43EF
:1004600005FA03FC4CEA040491F803C0BCF1280F20
:1004700006D14FF0010C0CFA00FCC2F814C00AE0DF
:1004800091F803C0BCF1480F05D14FF0010C0CFAF4
:1004900000FCC2F810C0401C0828D1D31460B1F889
:1004A00000C0BCF1FF0F34DD546800202EE000F1E5
:1004B000080C4FF0010808FA0CF3B1F800C00CEA80
:1004C00003069E4221D183004FF00F0C0CFA03F774
:1004D000BC4305FA03FC4CEA040491F803C0BCF1E8
:1004E000280F05D100F1080C08FA0CF8C2F81480A6
:1004F00091F803C0BCF1480F07D100F1080C4FF090
:10050000010808FA0CF8C2F81080401C0828CED365
:100510005460BDE8F0814FF6FF71018002218170C7
:100520000421C17070470246002093680B4201D03D
:10053000012000E0002070470146886880B27047C3
:1005400002460020D3680B4201D0012000E00020C9
:1005500070470146C86880B27047016170474161C9
:1005600070470AB1016100E041617047C1607047A6
:100570004FF480320A4382618161826182698269BB
:10058000704702460020424B18684FF680731840AF
:1005900040EA021008433E4B186070473D49C8616D
:1005A0007047F0B50A46002300240021002500F022
:1005B0000046B6F1004F02D1354EF16901E0344EEC
:1005C0007168C0F3034583B200F44016B6F5401FCE
:1005D00008D121F070612E4E766826F070662C4F9F
:1005E0007E6012E000F48016B6F5801F06D1032667
:1005F00006FA05F4A14341F0706106E0460D3601AC
:1006000003FA06F6B14341F0706122B1460D36019E
:1006100003FA06F6314300F00046B6F1004F02D16E
:100620001B4EF16101E01A4E7160F0BD30B5002241
:100630008B071C0F0F2303FA04F2154B08338C10A1
:1006400053F824309343124C08348D1044F825306D
:1006500023468C1053F824308C07240F00FA04F43E
:1006600023430B4C08348D1044F8253030BD0A4923
:100670000860704700080140000C01400010014074
:100680000014014000180140001C014000200140FE
:100690000000014000002042DC002042DD480068EC
:1006A00040F00100DB49086008464068DA4908402C
:1006B000D849486008460068D8490840D5490860CC
:1006C0000846006820F4802008600846406820F44E
:1006D000FE0048604FF41F0088607047CD490968EC
:1006E00021F48031CB4A11601146096821F4802140
:1006F0001160B0F5803F03D0B0F5802F0ED106E039
:10070000C449096841F48031C24A116007E0C14917
:10071000096841F4A021BF4A116000E000BF00BF9A
:10072000704710B501460022002300204A11012A1B
:1007300002D1B84C236806E0022A02D1B54C236AE4
:1007400001E0B44C636A01F01F02012494401C4292
:1007500001D0012000E0002010BD38B5002000903D
:100760000024002500BF3120FFF7DBFF054600987D
:10077000401C00900098B0F5A06F01D0002DF2D081
:100780003120FFF7CEFF08B1012400E0002420460D
:1007900038BD014600209F4A106820F0F80040EA6A
:1007A000C100106070479E490860704702460020F3
:1007B000984B586820F47C1042EA01031843954B8B
:1007C0005860704796490866704701460020914A74
:1007D000506820F003000843506070478D4840681F
:1007E00000F00C007047014600208A4A506820F053
:1007F000F00008435060704701460020854A506869
:1008000020F4E06008435060704701460020814AB0
:10081000506820F4605040EAC1005060704729B130
:100820007C4A527A02437B4B5A7204E0794A527AEC
:100830008243784B5A7270477A4908607047014684
:100840000020744A506820F44040084350607047CC
:100850000021754A11706F4A82F82010012802D0D9
:10086000042808D103E001216F4A117004E005213A
:100870006D4A117000E000BF00BF70476B4908600F
:1008800070476449096A0143624A116270476749C7
:1008900044390860704730B500210022002400234D
:1008A0005C4D6D6805F00C0121B1042905D00829C3
:1008B00023D105E05E4D056022E05D4D05601FE03F
:1008C000544D6D6805F47012524D6D6805F4803416
:1008D000022505EB92421CB9564D554305600BE0CD
:1008E0004C4D6D6815F4003F03D0524D55430560E3
:1008F00002E04F4D5543056002E04D4D056000BFDD
:1009000000BF444D6D6805F0F00109094A4D6B5C6C
:100910000568DD4045603F4D6D6805F4E061090AFA
:10092000454D6B5C4568DD4085603A4D6D6805F46A
:100930006051C90A404D6B5C4568DD40C560354D6E
:100940006D6805F44041890B3C4D6B5CC568B5FB97
:10095000F3F5056130BD29B12E4A526902432D4B92
:100960005A6104E02B4A526982432A4B5A6170470C
:1009700029B1284A92690243264B9A6104E0254A2C
:1009800092698243234B9A61704729B1214AD26907
:100990000243204BDA6104E01E4AD26982431D4BB8
:1009A000DA61704729B11B4AD2680243194BDA60F9
:1009B00004E0184AD2688243164BDA60704729B1C6
:1009C000144A12690243134B1A6104E0114A126976
:1009D0008243104B1A6170471449403908607047D0
:1009E0000F49C86470470B49C87170470948406A8D
:1009F00040F0807007494862704701460020054A70
:100A000092680A4201D0012000E0002070470149AD
:100A100088727047001002400000FFF8FFFFF6FEEA
:100A200000004242D800424220100240800442426C
:100A300000127A0000093D0014000020240000206C
:100A400010B50446FB48844209D101218803FFF711
:100A5000A9FF00214FF48040FFF7A4FF32E0F648E1
:100A6000844209D101214804FFF7A9FF00214FF476
:100A70000030FFF7A4FF25E0F048844209D10121AE
:100A80008804FFF79CFF00214FF48020FFF797FFB9
:100A900018E0EB48844209D10121C804FFF78FFF19
:100AA00000214FF40020FFF78AFF0BE0E548844265
:100AB00008D101210805FFF782FF00214FF48010C3
:100AC000FFF77DFF10BD2DE9F04786B005460E46C5
:100AD0000024A24600BFA1460027B08900B100BF94
:100AE0002F462C8A4CF6FF700440F08804432C8279
:100AF000AC894EF6F3100440B088318908437189FF
:100B000008430443AC81AC8A4FF6FF400440B089EF
:100B10000443AC8201A8FFF7BEFEC648874202D15B
:100B2000DDF810A001E0DDF80CA0A88910F4004F5A
:100B300008D00AEBCA0000EB0A1031684900B0FB8C
:100B4000F1F807E00AEBCA0000EB0A1031688900EF
:100B5000B0FBF1F86420B8FBF0F004012009642137
:100B600001FB1089A88910F4004F08D0322000EB57
:100B7000C900B0FBF1F000F00700044308E03220A8
:100B800000EB09106421B0FBF1F000F00F0004430A
:100B90002C8106B0BDE8F0874FF4165101600021AA
:100BA0008180C18001810C214181002181817047B8
:100BB00010B502460020108A4FF2FF0318400B8840
:100BC0004C8823438C882343CC88234318431082CA
:100BD00010BD0021018041808180C180704721B11A
:100BE000828942F40052828104E082894DF6FF73CB
:100BF0001A4082817047F0B5034600240026002584
:100C00000020A1F510676A3F00D100BF1846C1F36C
:100C1000421401F01F06012707FA06F5012C01D145
:100C20000C3004E0022C01D1103000E014301AB175
:100C300007682F43076002E00768AF430760F0BD15
:100C40001AB1838A0B43838202E0838A8B438382B7
:100C50007047028A4FF6F0731A400282028A0A43F2
:100C60000282704782894FF2FF731A408281828923
:100C70000A438281704721B1828942F00202828157
:100C800004E082894FF6FD731A4082817047028A20
:100C90004FF6DF731A400282028A0A4302827047CB
:100CA00021B1028A42F48042028204E0028A4BF6B9
:100CB000FF731A4002827047C1F3080282807047B6
:100CC00001468888C0F308007047818941F001011E
:100CD00081817047028BD2B20283028B42EA0122E9
:100CE00002837047028B02F47F420283028B0A4325
:100CF0000283704721B1828A42F02002828204E09E
:100D0000828A4FF6DF731A408282704721B1828A4D
:100D100042F01002828204E0828A4FF6EF731A409A
:100D20008282704721B1828A42F00802828204E006
:100D3000828A4FF6F7731A408282704721B1828906
:100D400042F40042828103E08289C2F30E02828172
:100D5000704721B1828A42F40062828204E0828A72
:100D60004FF2FF731A4082827047828A4FF6FB73FC
:100D70001A408282828A0A438282704721B1828A23
:100D800042F00202828204E0828A4FF6FD731A402A
:100D90008282704702460020B1F5007F00D100BF7B
:100DA00013880B4201D0012000E00020704701F4BD
:100DB0000072B2F5007F00D100BFCA4302807047C5
:100DC00070B502460024002300250020A1F510661E
:100DD0006A3E00D100BFC1F3421501F01F03012696
:100DE00006FA03F3012D02D19689334006E0022D65
:100DF00002D1168A334001E0968A33400C12012654
:100E000006FA04F41688344013B10CB1012000E056
:100E1000002070BD10B500220023A1F510646A3CCB
:100E200000D100BF0A1201249440A3B2DC43048025
:100E300010BD000000380140004400400048004060
:100E4000004C00400050004008B501212020FFF771
:100E50008FFD4FF48070ADF8000010208DF8030076
:100E600003208DF8020069461748FFF7CBFA0121ED
:100E70002020FFF77DFD4FF40070ADF800006946BB
:100E80001148FFF7BFFA01212020FFF771FD4FF451
:100E90008060ADF8000069460B48FFF7B3FA08BD63
:100EA00010B5FFF7D1FF4FF480710748FFF755FBEE
:100EB0004FF400710448FFF750FB4FF48061024883
:100EC000FFF74BFB10BD00000014014010B5FFF709
:100ED000E7FF00F027F810BD00B585B06846FFF7C2
:100EE000DAFC019805B000BD10B50C48006840F070
:100EF00080700A4908600020094948600846006877
:100F000040F001000860FFF7E7FF0446204600F0CC
:100F100086F910BD0248406870470000FCED00E013
:100F2000001000E000B585B001218803FFF720FD27
:100F300001210420FFF71CFD4FF40070ADF81000F4
:100F400018208DF8130003208DF8120004A9224800
:100F5000FFF758FA4FF48060ADF8100004208DF8C8
:100F6000130004A91C48FFF74DFA4FF416500090E7
:100F70000020ADF80400ADF80600ADF80800ADF8AB
:100F80000C000C20ADF80A0069461448FFF79BFDE1
:100F900001211248FFF723FE05B000BD70B50446DD
:100FA0000D46E1B20D48FFF787FE00BF80210B48D8
:100FB000FFF7F0FE0028F9D0204670BD10B50446BA
:100FC00000BF20210548FFF7E5FE0028F9D00348BF
:100FD000FFF776FE10BD0000000801400038014018
:100FE00072B6704762B67047EFF3108072B6704702
:100FF00080F31088704730BF704720BF7047B0FA49
:1010000080F0704790FAA0F0B0FA80F0704790FA44
:10101000A0F0704710B5FD480088401EFB490880CD
:1010200008460088A0B9FFF775FFF949086008462F
:101030000068F8490968441AF7480068A04201D2DC
:10104000F5480460F5480068A04201D2F348046006
:1010500010BD10B5F2480088401CF1490880EB48EB
:10106000008818B9FFF756FFEA490860E74800888A
:10107000401CE649088010BD10B5002400BF00BF29
:10108000FFF7B2FF044600BFFFF7E3FF00BF1021E8
:10109000E44800F059FB00BFFFF7BCFF00BF20464B
:1010A000FFF7A6FF00BF00BF10BD10B5FFF7E4FFBC
:1010B00010BD70B500260020D9490880D3490880AA
:1010C000D4490860D2490860D3490860D349086010
:1010D000D5490860002400BFFFF786FF064600BF21
:1010E00000250BE00020CC490860FFF7B2FFFFF7B6
:1010F00091FFC94800680444681C85B2002DF1D0F6
:10110000C94804600020C4490860C449086000BFA1
:101110003046FFF76DFF00BF70BD10B50020C3491A
:101120000860FFF7E1FE10BD10B5FFF7F6FFFFF70F
:10113000C0FFFFF7BAFF10BD00BFFEE770B5054660
:101140000C46002614B900BFFFF7F6FF15B90A20B8
:10115000208070BD00BF00BFFFF746FF064600BFFE
:10116000FFF777FF00BF1022AE49284601F07EFA54
:1011700000BFFFF74FFF00BF3046FFF739FF00BF4A
:1011800000BF0020208000BFE3E72DE9F0410546C5
:101190000C46002714B900BFFFF7CEFF1DB90A2087
:1011A0002080BDE8F0811021284601F047FA06466C
:1011B000102E19D200BF00BFFFF716FF074600BF71
:1011C000FFF747FF00BF10222946964801F04EFA6C
:1011D00000BFFFF71FFF00BF3846FFF709FF00BF42
:1011E00000BF0020208002E04FF47A70208000BF12
:1011F000D7E710B5FFF78EFE0446204610BD7047B6
:1012000000B5014611B900BFFFF796FF874A106885
:1012100008B1002201E04FF4FA620A8000BD834960
:1012200008607047014608467F4A1268904203D919
:101230007D4A1268801A00E00020704770B50025D2
:1012400000BFFFF7D1FE054600BF7348046800BF2A
:101250002846FFF7CDFE00BF2046FFF7E3FF064616
:10126000304670BD70B50025FFF7E8FF044600BFAB
:10127000FFF7BAFE054600BF00206749086000BFBF
:101280002846FFF7B5FE00BF204670BD70B50025AB
:1012900000BFFFF7A9FE054600BF6048046800BF15
:1012A0002846FFF7A5FE00BF2046FFF7BBFF064616
:1012B000304670BD70B505462846FFF7A0FE0446CF
:1012C000183C204670BD70B505462846FFF797FECE
:1012D0000446103C204670BD70B505462846FFF711
:1012E0008EFE044600BF204670BD30B502460B4658
:1012F0004FF0FF354FF00004AD1A9C4127D24FF05C
:10130000FF352C0CAD1A9C410FD24FF0FF352C0A43
:10131000AD1A9C4103D2190E454C605C45E0190C96
:10132000434C645C04F108003FE04FF0FF35FF24BC
:10133000AD1A9C4105D2190A3D4C645C04F11000C1
:1013400033E019463A4C645C04F118002DE04FF686
:10135000FF750024AD1A9C4115D26FF07F45002423
:10136000AD1A9C4107D2140E44EA0321304C645C50
:1013700004F1200019E0140C44EA03412C4C645C95
:1013800004F1280011E0FF250024AD1A9C4107D28A
:10139000140A44EA0361264C645C04F1300004E062
:1013A0001146234C645C04F1380030BD70B504462E
:1013B0000CB9082070BD2046FFF724FE05462846DC
:1013C000F8E770B504460CB9102070BD2046FFF751
:1013D00019FE05462846F8E770B504460CB92020EA
:1013E00070BD2046FFF70EFE05462846F8E72DE9BA
:1013F000F04304460D464FF0000184EA010085EAFF
:101400000101084316D14020BDE8F0832E000020E2
:1014100034000020300000203C000020400000206C
:101420002C0000202C010020380000202800002083
:10143000EEBC0008E243E843521C40F1000102EA1E
:10144000040601EA050730463946FFF74EFF80469D
:10145000C8F13F094846D7E70146412903DB5A292D
:1014600001DC012200E00022012A08D0612903DB0F
:101470007A2901DC012200E00022012A01D10122A7
:1014800000E00022104670470146412903DB5A293B
:1014900001DC012200E00022012A08D0612903DBDF
:1014A0007A2901DC012200E00022012A01D1012277
:1014B00000E00022012A08D0302903DB392901DCB1
:1014C000012200E00022012A01D1012200E00022D5
:1014D000104670470146612903DB7A2901DC0122AD
:1014E00000E00022104670470146412903DB5A29DB
:1014F00001DC012200E0002210467047014630293D
:1015000003DB392901DC012200E00022104670478C
:101510000146302903DB372901DC012200E00022EB
:10152000104670470146302901DB392907DD412982
:1015300001DB462903DD612903DB662901DC012289
:1015400000E00022104670470146202901D00929F9
:1015500001D1012200E000221046704701462029F7
:1015600009D00D2907D00A2905D00C2903D0092953
:1015700001D00B2901D1012200E000221046704762
:101580000146202903DB7E2901DC012200E0002244
:10159000104670470146212903DB7E2901DC012228
:1015A00000E00022104670470146202903DB7E2917
:1015B00001DC012200E00022012A35D1202909D0D6
:1015C0000D2907D00A2905D00C2903D0092901D0FB
:1015D0000B2901D1012200E000222ABB412903DBB3
:1015E0005A2901DC012200E00022012A08D06129E9
:1015F00003DB7A2901DC012200E00022012A01D16B
:10160000012200E00022012A08D0302903DB392919
:1016100001DC012200E00022012A01D1012200E0C8
:1016200000220AB9012200E000221046704701465C
:101630004AB2002A01DB1F2901DD7F2901D10122E5
:1016400000E00022104670470146412903DB5A2979
:1016500001DC012200E00022012A02D101F1200276
:1016600000E00A46D0B270470146612903DB7A29BF
:1016700001DC012200E00022012A02D1A1F12002B6
:1016800000E00A46D0B27047F0B504460B4620464B
:10169000FFF7EAFF05461846FFF7E6FF0646B542A4
:1016A00001D1012000E0002007463846F0BD0000CF
:1016B000F748F84901600146416000218160C1603E
:1016C000016141618161C16101620163C162416285
:1016D000F1498163C1634FF4D8410164416401461B
:1016E000EE4A116070472DE9F04103460C4617465B
:1016F0000FB9BDE8F08103B9FBE70025002202E045
:101700002D022543521C042AFAD3384603F0030C59
:101710001946BCF1000F08D0624603E001F8014B06
:10172000401E521C08B1042AF8D30E4601E020C620
:10173000001F0428FBD2314602E001F8014B401E95
:101740000028FAD100BFD4E730B505460C46224642
:1017500000212846FFF7C7FF30BD2DE9F04F85B0C7
:10176000074688469146B9F1000F02D105B0BDE8A1
:10177000F08F07B9FAE7B8F1000F00D1F6E7464657
:101780003D46AE4205D94A464146384601F0EAFB9D
:10179000ECE74C463819451E08EB0400461EA81B12
:1017A00004900498042834D305F00300029006F056
:1017B00003010191DDE90110884201D1012000E01F
:1017C000002000900098012823D10298032810D00F
:1017D000029840B2039008E016F8010905F80109E3
:1017E000641E0398401E40B2039014B10398002871
:1017F000F2DAA5F1030AA6F1030B04E05BF8040991
:101800004AF80409241F042CF8D20AF103050BF14D
:10181000030604E016F8010905F80109641E002C0E
:10182000F8D100BFA2E72DE9F84F8046894615465A
:1018300015B90120BDE8F88FB8F1000F01D10020E3
:10184000F8E7B9F1000F01D10020F3E701242946A0
:1018500008EB050209EB050302F0030C03F0030B90
:10186000DC4501D1012000E0002000900098012813
:1018700029D1BCF1000F12D0E2460AE0521E5B1ED5
:10188000107893F800E0704500D00024491EAAF1BA
:10189000010A012C03D111B1BAF1000FEED1012CD4
:1018A00011D116461F4608E0361F3F1F3068D7F893
:1018B00000E0704500D00024091F012C01D104294B
:1018C000F2D232463B4608E0521E5B1E107893F877
:1018D00000E0704500D00024491E012C01D10029F0
:1018E000F2D12046A6E7F0B503460D461646DA6B60
:1018F000B2FBF6F006FB102CBCF1000F02D0A6EBF9
:101900000C0400E000246119586C884201D20020C8
:10191000F0BDA14201D3A94201D20020F8E7571837
:10192000974201D20020F3E72244DF63586C401A4B
:1019300058641046ECE72DE9F04F81468C461C4672
:10194000B9FBF4F004FB109BBBF1000F02D0A4EB39
:101950000B0600E00026B2FBF4F004FB102BBBF1F9
:10196000000F02D0A4EB0B0300E00023D018ACF171
:10197000010E00FB0E60871806EB0208B04501D38C
:10198000904502D20020BDE8F08FBCF1010F22D9B2
:10199000D5189D4201D3954201D20020F3E7ACF166
:1019A000010000FB05F1A94203D3994201D3914202
:1019B00001D20020E7E701EB020A8A4501D39245F4
:1019C00001D20020DFE7474503D38F4201D35745BB
:1019D00001D20020D7E73846D5E72DE9FE4F07466C
:1019E000884615461C46002000901CB900BFFFF732
:1019F000A3FB00BF0DB901AD00BF002028602FB9C7
:101A000042F2747020800020BDE8FE8FB8F1000F14
:101A100004D142F2757020800020F5E7DFF8709065
:101A200000BF00BFFFF7E0FA009000BFFFF711FB17
:101A300000BFD9F83C000290D9F844B043463A467A
:101A400001210298FFF777FF064676B900BFFFF73E
:101A5000E1FA00BF0098FFF7CBFA00BF00BF2F608C
:101A600042F2E37020800020CEE75E4518D900BF27
:101A7000FFF7D0FA00BF0098FFF7BAFA00BF00BF27
:101A8000A6EB0B00286042F2E27020800020BBE74A
:101A90003C010020484541508401002044000020C2
:101AA000424639464846FFF71EFF8246BAF1000F0C
:101AB0000ED100BFFFF7AEFA00BF0098FFF798FA0B
:101AC00000BF00BF2E6042F2E270208000209BE742
:101AD00000BFFFF79FFA00BF0098FFF789FA00BF29
:101AE00000BF42F21070208050468DE72DE9FC5F68
:101AF00006460D461446002000901CB900BFFFF7B3
:101B00001BFB00BF2DB942F2757020800020BDE89C
:101B1000FC9FB5F5805F04D942F2757020800020EB
:101B2000F5E726B942F2117020800020EFE700BFF0
:101B300000BFFFF759FA009000BFFFF78AFA00BF15
:101B4000FC493068401808D0FB49401803D0FB49D5
:101B5000401801D100BF0EE000BF00BFFFF75AFAE6
:101B600000BF0098FFF744FA00BF00BF42F2887040
:101B700020800020CBE700BFD6F80490D9F83800C9
:101B800008B1484600E0EE488246DAF84470DAF8D8
:101B90003CB000BFFFF73EFA00BF0098FFF728FAFD
:101BA00000BF00BF012D0DD9BBFBF5F005FB10B840
:101BB000B8F1000F02D0A5EB080000E00020019072
:101BC00001983F1A42F21070208038469FE770B5A6
:101BD00004460D462A462146D948FFF787FF0646A8
:101BE000304670BD70B504460D461DB900BFFFF705
:101BF000A3FA00BF1CB942F21170288070BDCD4815
:101C00004042206000206060A060E0602061606170
:101C1000A061E0612062A06260632063E0626062B4
:101C2000A063E0632064606442F21070288000BF0B
:101C3000E4E72DE9FF4F91B00446DDE9209500204F
:101C400000901DB900BFFFF777FA00BFB9F1000F90
:101C500002D10DF1100900BF0020C9F8000029468B
:101C60002046FFF7BFFF2888A0F51C51103902D08D
:101C700015B0BDE8F08F129828B1139818B942F248
:101C80007E702880F4E7149818B942F29270288088
:101C9000EEE71E9818B942F293702880E8E71F9883
:101CA00018B942F294702880E2E7A648006818B993
:101CB00042F2E7702880DBE7A14810904FF0000A5D
:101CC00000BF00BFFFF790F9009000BFFFF7C1F918
:101CD00000BF1298002863D1109E109E0E96109E91
:101CE0003746109EF06B0B9004231A4614990B98FC
:101CF000FFF721FE0390039860B900BFFFF78AF950
:101D000000BF0098FFF774F900BF00BF42F2E37014
:101D10002880ADE703990B9808440A90DDE91E235B
:101D200014990A98FFF707FE8346BBF1000F0CD108
:101D300000BFFFF76FF900BF0098FFF759F900BF28
:101D400000BF42F2E370288092E7039800EB0B0A91
:101D50000398824501D3DA450CD200BFFFF75AF948
:101D600000BF0098FFF744F900BF00BF42F2E370E4
:101D700028807DE71098D0F84480C2457ED900BF06
:101D8000FFF748F900BF0098FFF732F900BF00BF26
:101D9000AAEB0800C9F8000042F2E270288067E769
:101DA00012980990DDE912010844401E0890DDE90F
:101DB000081081420CD200BFFFF72CF900BF009839
:101DC000FFF716F900BF00BF42F2977028804FE777
:101DD000002600200E905B4807683CE0B96B129823
:101DE000814205D1396C1398814201D13E4634E0DD
:101DF000B86B0790396CB86B0844401E0690DDE95B
:101E00000701814200D228E007990998884203D847
:101E1000DDE9071088420FD207990998884203D359
:101E200006990898884207D906990998884210D8D7
:101E30000699089888420CD300BFFFF7EBF800BF63
:101E40000098FFF7D5F800BF00BF42F27F702880EE
:101E50000EE70E97FF68002FC0D100BF46B9264697
:101E60001298A0631298E06313982064139860643A
:101E70001098C06B0B9004231A4600E064E014999C
:101E80000B98FFF758FD0390039860B900BFFFF768
:101E9000C1F800BF0098FFF7ABF800BF00BF42F2E7
:101EA000E3702880E4E61098D0F844800398404519
:101EB00011D900BFFFF7AEF800BF0098FFF798F800
:101EC00000BF00BF0398A0EB0800C9F8000042F271
:101ED000E2702880CCE6F06B0A90DDE91E231499AD
:101EE0000A98FFF728FD8346BBF1000F0CD100BF15
:101EF000FFF790F800BF0098FFF77AF800BF00BF27
:101F000042F2D9702880B3E6D6F84480C3451BD985
:101F100000BFFFF77FF800BF0098FFF769F800BF28
:101F200000BFABEB0800C9F8000042F2D87028806F
:101F30009EE60000B2B0B1BAFEFFFEF8080A0EFC41
:101F40003C010020440000201498800002900422EC
:101F500002991098FFF7C7FC0D900D9838BB1098A8
:101F6000D0F8448000BFFFF755F800BF0098FFF796
:101F70003FF800BF00BF129848B9C24504D9AAEB88
:101F80000800C9F800000EE0C9F800A00BE00298B4
:101F9000404505D90298A0EB0800C9F8000002E00E
:101FA0000298C9F8000042F2E270288060E6002042
:101FB000019034E03046DDE91E12FFF794FC0C90EE
:101FC0000C9820BBF06B0A90D6F8448000BFFFF756
:101FD00021F800BF0098FFF70BF800BF00BF019980
:101FE0001498401A0590DDE91E2305990A98FFF719
:101FF000A2FC8246C24504D9AAEB0800C9F8000039
:1020000001E0C9F800A042F2D870288030E6019AB9
:10201000DDE90C0141F822000198401C019014995F
:1020200001988842C6D3A6420CD10E98A060E76002
:102030000E9810B10E98C46001E0FB4804605FB1D7
:10204000BC6009E070690F9026610F98606174614F
:102050000F9808B10F980461F448206066600A98F0
:10206000A0610A985844401EE0610D982062C4F8AF
:1020700028B01F9860631E9820631498E06214983B
:10208000606200BFFEF7C6FF00BF0098FEF7B0FF1A
:1020900000BF00BF42F21070288000BFE8E52DE9C4
:1020A000F04105460C4600271CB900BFFFF744F875
:1020B00000BF2DB942F2117020800020BDE8F081F0
:1020C00000BF00BFFEF790FF074600BFFEF7C1FF4D
:1020D00000BFD7492868401808D0D649401803D017
:1020E000D549401801D102E00FE000BF00BF00BF9A
:1020F000FEF790FF00BF3846FEF77AFF00BF00BF33
:1021000042F2887020800020D8E700BF6E6A00BFCE
:10211000FEF780FF00BF3846FEF76AFF00BF00BF32
:1021200042F2107020803046C8E72DE9F0410446A5
:102130000E4615464FF000081DB900BFFEF7FCFF24
:1021400000BF2CB942F2117028800020BDE8F08158
:1021500026B942F2937028800020F7E700BF00BF45
:10216000FEF742FF804600BFFEF773FF00BFAF4996
:10217000206888420DD000BFFEF74CFF00BF4046EC
:10218000FEF736FF00BF00BF42F2887028800020B3
:10219000DCE7206BB0420DD200BFFEF73BFF00BF73
:1021A0004046FEF725FF00BF00BF42F29370288033
:1021B0000020CBE7606A68B900BFFEF72BFF00BFC5
:1021C0004046FEF715FF00BF00BF42F2DE702880D8
:1021D0000020BBE7E16A606A88420DD900BFFEF7C4
:1021E00019FF00BF4046FEF703FF00BF00BF42F2E9
:1021F000957028800020A9E7606A401E6062D4E9DB
:10220000080150F8217000BFFEF704FF00BF4046F0
:10221000FEF7EEFE00BF00BF42F210702880384685
:1022200094E72DE9F04704460F4615464FF00009A4
:102230001DB900BFFEF780FF00BF2CB942F211703C
:1022400028800020BDE8F08700BF00BFFEF7CCFE6D
:10225000814600BFFEF7FDFE00BF7449206888423A
:102260000DD000BFFEF7D6FE00BF4846FEF7C0FE09
:1022700000BF00BF42F2887028800020E2E7E16AD8
:10228000606A88420DD300BFFEF7C4FE00BF484617
:10229000FEF7AEFE00BF00BF42F29570288000201E
:1022A000D0E7E06AC01B461EE06AB0420DD800BF0E
:1022B000FEF7B0FE00BF4846FEF79AFE00BF00BF23
:1022C00042F2957028800020BCE7606AB0420DD9C8
:1022D00000BFFEF79FFE00BF4846FEF789FE00BF25
:1022E00000BF42F2957028800020ABE7206A50F8CA
:1022F000268000BFFEF78EFE00BF4846FEF778FE40
:1023000000BF00BF42F21070288040469AE72DE9D6
:10231000F04F02460C469569D2F81CB0AC4201D38E
:102320005C4502D90020BDE8F08F536BB5FBF3F09C
:1023300003FB105111B1A3EB010C01E04FF0000CB5
:10234000176BB7FBF3F003FB107109B15E1A00E0E5
:10235000002605EB0C08A4EB080A07EB0609BAFBFC
:10236000F9F009FB10A008B9012000E00020864622
:102370007046D8E72DE9F04704460F4615464FF062
:10238000000A1DB900BFFEF7D7FE00BF24B942F214
:1023900011702880BDE8F0871FB942F211702880C3
:1023A000F8E700BF00BFFEF71FFE824600BFFEF742
:1023B00050FE00BF1D49206888420CD000BFFEF7C8
:1023C00029FE00BF5046FEF713FE00BF00BF42F2D9
:1023D00088702880DEE739462046FFF798FF804660
:1023E000B8F1010F0CD000BFFEF714FE00BF50463D
:1023F000FEF7FEFD00BF00BF42F297702880C9E7DC
:1024000000261CE0206A50F82600B84216D100BF12
:10241000FEF700FE00BF5046FEF7EAFD00BF00BF1A
:1024200042F298702880B5E744000020504F4F4C8E
:10243000B2B0B1BAFEFFFEF8080A0EFC761C606A64
:10244000B042DFD8E16A606A88420CD300BFFEF771
:10245000E1FD00BF5046FEF7CBFD00BF00BF42F2DA
:10246000DD70288096E74FF00008666A08E0206A71
:1024700050F82690B94502D14FF0010803E0761CD0
:10248000E06AB042F3D800BFB8F1010F07D1D4E938
:10249000080150F82100216A41F826000CE000BF35
:1024A000FEF7B8FD00BF5046FEF7A2FD00BF00BF1B
:1024B00042F2887028806DE7D4E9080140F8217065
:1024C000606A401C606200BFFEF7A4FD00BF50467A
:1024D000FEF78EFD00BF00BF42F21070288000BFE3
:1024E00058E72DE9F84F04460F46154600200090A6
:1024F0004FF0FF3B1DB900BFFEF71EFE00BF2CB919
:1025000042F2117028805846BDE8F88F27B942F290
:10251000117028805846F7E700BF00BFFEF764FD42
:10252000009000BFFEF795FD00BF43492068884238
:102530000DD000BFFEF76EFD00BF0098FEF758FDFE
:1025400000BF00BF42F2887028805846DCE7394659
:102550002046FFF7DCFE8046B8F1010F0DD000BF2A
:10256000FEF758FD00BF0098FEF742FD00BF00BF18
:1025700042F2977028805846C6E7002613E0206A8A
:1025800050F82600B8420DD100BFFEF743FD00BF52
:102590000098FEF72DFD00BF00BF42F29870288022
:1025A0005846B1E7761C606AB042E8D8E16A606AD2
:1025B00088420DD300BFFEF72DFD00BF0098FEF747
:1025C00017FD00BF00BF42F2DD70288058469BE730
:1025D0004FF00008666A08E0206A50F82690B94576
:1025E00002D14FF0010803E0761CE06AB042F3D854
:1025F00000BFB8F1010F11D1E06A401EA0EB060A3E
:1026000000BFFEF707FD00BF0098FEF7F1FC00BF1A
:1026100000BF42F210702880504675E700BFFEF7F9
:10262000F9FC00BF0098FEF7E3FC00BF00BF42F2D8
:1026300088702880584667E7504F4F4C10B50246C7
:102640000B461146002001E0491C401C19B10C78D2
:102650000CB19842F8D310BD30B504464FF0FF31AD
:102660002046FFF7EBFF0546284630BD70B504460F
:102670000D4616460CB9002070BD0DB90020FBE7D1
:1026800021462A46002304E010780870491C521C99
:102690005B1C21B11AB1107808B1B342F4D301B177
:1026A0000AB90020E8E7B34201D2002008702046B2
:1026B000E2E770B504460D464FF0FF32294620464A
:1026C000FFF7D4FF0646304670BD70B503460C4692
:1026D00015460BB9002070BD0CB90020FBE70DB901
:1026E0001846F8E7194600E0491C11B1087800289F
:1026F000FAD109B90020EEE72246002604E010785E
:102700000870491C521C761C21B11AB1107808B10E
:10271000AE42F4D301B10AB90020DCE70020087012
:102720001846D8E770B504460D464FF0FF322946EB
:102730002046FFF7CAFF0646304670BD2DE9F0433C
:1027400005460B469446BCF1000F02D10020BDE8BF
:10275000F08335B90BB90020F9E7187842421046EA
:10276000F5E713B92A781046F1E729461C460F46CB
:1027700026467F1C761C4FF0000805E0491C641CAF
:102780007F1C761C08F10108087894F800904845F1
:1027900005D1087818B117B10EB1E045EED3E04588
:1027A00001D10020D3E7087894F80090484505D07F
:1027B000087894F80090A0EB09020BE0087808B9BB
:1027C000002207E02FB90EB9002203E03078424220
:1027D00000E03A781046BAE770B504460D464FF06F
:1027E000FF3229462046FFF7A9FF0646304670BD56
:1027F0002DE9F74F82B080460E46049818B90020A4
:1028000005B0BDE8F08FB8F1000F09D10EB9002076
:10281000F6E73078FEF718FF07467C422046EFE7E0
:102820003EB998F80000FEF70FFF05462C462046FB
:10283000E6E7C146B246C846C3465646CDF804A0B0
:10284000D8460BF1010B019E701C0190C84699F807
:102850000000FEF7F9FE054656469AF80000FEF71E
:10286000F3FE07460020009015E009F101090AF186
:10287000010A0BF1010B0198401C01900098401CCB
:10288000009099F80000FEF7DFFE05469AF8000078
:10289000FEF7DAFE0746BD420BD199F8000040B1C1
:1028A000BBF1000F05D0019818B104990098884237
:1028B000DBD304990098884201D10020A0E7BD42F3
:1028C00001D0EC1B16E00DB9002413E0BBF1000FA2
:1028D0000AD1019808B900240CE001990878FEF7A4
:1028E000B3FE07467C4205E09BF80000FEF7ACFE15
:1028F00005462C46204683E770B504460D464FF04A
:10290000FF3229462046FFF773FF0646304670BD6A
:1029100030B504460B4615460CB9002030BD0BB946
:102920000020FBE72146002201E0491C521C31B186
:10293000087820B10878A84201D09A42F5D309B9A5
:102940000020EBE79A4201D30020E7E70878A8428D
:1029500001D00020E2E70846E0E770B505460C46E6
:1029600022464FF0FF312846FFF7D2FF0646304699
:1029700070BD2DE9F04305460E46174615B90020F7
:10298000BDE8F0830EB90020FAE72C46A6F1010954
:1029900049462046FFF752FE804644440CB90020C9
:1029A000EEE700E0641EAC4202D02078B842F9D1D4
:1029B0002078B84201D00020E2E72046E0E770B579
:1029C00005460C4622464FF0FF312846FFF7D1FF5F
:1029D0000646304670BD70B504460D4616460CB925
:1029E000002070BD0BB90020FBE721461A4605E028
:1029F0000878A84200D10E70491C521E19B10878FF
:102A000008B1002AF4D12046EBE7F0B504460D46A4
:102A100016464FF0FF33324629462046FFF7DBFFCC
:102A200007463846F0BD2DE9FF4F06460F461546CE
:102A30001EB9002004B0BDE8F08F0FB90020F9E7FF
:102A40000DB90020F6E7681C00D001E04FF0FF3020
:102A5000039029463046FFF7F1FD8046384603993A
:102A6000FFF7ECFD04460CB93046E3E7444501D9D5
:102A70000020DFE706EB080BBBF1000F01D10020BF
:102A8000D8E707EB040BBBF1000F01D10020D1E721
:102A9000A8EB040002904FF000090020019000BF55
:102AA00006EB09000090224639460098FFF746FEE3
:102AB0008246BAF1000F01D1012000E00020019010
:102AC00009F10109019810B902988145E8D9BAF1D4
:102AD000000F01D00020ADE70098ABE770B50446C9
:102AE0000D464FF0FF3229462046FFF79CFF064671
:102AF000304670BD2DE9FF4F8DB00F4615461A9E2A
:102B00001D9818B9002011B0BDE8F08F0020039087
:102B1000012F01DA01200390022D01D3242D01D9C8
:102B20000120039096B33046FEF72AFD02900298EA
:102B3000012802D00120039028E0302E26D0A6F1F3
:102B40003000C0B207901B98012804D0A6F14100C4
:102B5000C0B2069003E0A6F16100C0B206900A2D53
:102B600002D80798A84209DB0A2D09D907980A2834
:102B700004D3A5F10A000699884201D9012000E09A
:102B8000002005900598012800D103901D9C039812
:102B9000002846D1DDF834A0DDF834A0CDF830A00F
:102BA00001200B9007E00B98401CC0B20B900C98D2
:102BB000B0FBF5F00C900C98A842F4D210980128C4
:102BC00000D100E0002009900B9909980844B84210
:102BD00025DC002001900B98B84201DA0B9800E048
:102BE00038460A903EB1B8460A98391A0998081A28
:102BF000C0B2089006E0DDE90910084400F0FF08C3
:102C0000002008900898002806DD302E01D1012010
:102C100000E00020049004E00020049001E0012086
:102C20000390039800B1B84644441C9808B10020B2
:102C30002070641E4FF0000941E00398A8BBBAF170
:102C4000000F02D1B9F1000F1CD1BAFBF5F005FB62
:102C500010A000F0FF0BBBF10A0F04D20BF1300003
:102C600004F801090BE01B98012804D00BF1370090
:102C700004F8010903E00BF1570004F80109BAFB5D
:102C8000F5FA1AE01098012810D1049808B90198B3
:102C900028B1049850B1A8F10100484506D12D2073
:102CA00004F801090120019007E003E02EB104F8C7
:102CB000016902E03F2004F8010909F10109C14559
:102CC000BBD3039808B100201DE71D981BE72DE931
:102CD000FF5F05460E4617461C46DDE90F9ADDF8F4
:102CE000388000233A46314628468DE81007FFF722
:102CF00001FF8346584604B0BDE8F09F2DE9FF4F21
:102D000085B0044689461F46DDE913AB002C02DA84
:102D10006542012601E02546002612983346CDE99A
:102D200002ABCDE9007049462846079AFFF7E2FE5C
:102D30008046404609B0BDE8F08F2DE9FF4F8BB0CB
:102D4000064689461546B9F1000F02D10DF1240956
:102D500000BFC9F80060189810B907A8189000BF04
:102D60000021189801701EB900200FB0BDE8F08F47
:102D7000012D01D0242D01D90020F6E7344620781A
:102D8000FEF7ECFB039004E0641C2078FEF7E6FB02
:102D9000039003980128F7D020782B2802D02D2803
:102DA0000BD103E0641C4FF0000B09E00E980128E2
:102DB00000D1641C4FF0010B02E04FF0000B00BF8C
:102DC00000BF0A9425B1082D1CD0102D36D11EE06D
:102DD0002078302814D1641C2078582802D0782814
:102DE0000BD100BF102567783846FEF79BFB824663
:102DF000BAF1010F00D1641C01E0082500BF00E01A
:102E00000A251CE02078302800D1641C17E02078C7
:102E1000302812D1641C2078582802D078280AD192
:102E200000BF67783846FEF77DFB8246BAF1010F96
:102E300000D1641C00E000BF00BF00E000BF00BF85
:102E40004FF0000800200290019040E027783846BB
:102E5000FEF71AFB05900598012836D13846FEF793
:102E60004DFB06900698012804D1A7F13000C0B2AE
:102E700008900FE03846FEF72DFB049004980128D7
:102E800004D1A7F15700C0B2089003E0A7F13700C2
:102E9000C0B208900898A84214DA029880B9304865
:102EA00050F82500404509D308FB05F808988044F0
:102EB0000898804504D20120029001E00120029090
:102EC000641C04E00120019001E0012001900198C0
:102ED0000028BBD00298012801D14FF0FF380A9892
:102EE000844202D0C9F8004001E0C9F80060189897
:102EF00080F800B0404638E7F8B504460D4616465F
:102F0000002003463246294600902046FFF715FF71
:102F100007463846F8BD2DE9FC4105460E461746E2
:102F200001A801233A46314600902846FFF705FFE5
:102F300004469DF8040040B9B4F1004F02D36FF08D
:102F4000004000E02046804607E0B4F1004F02D385
:102F50004FF0004000E0604280464046BDE8FC8102
:102F6000F0BD0008002800D17047002900D170474B
:102F7000002A00D170472DE9F81F00F0030301F08B
:102F80000304A34211D1C3F1040303F00303012B93
:102F90001DD3012A00D2F2E011F8014B00F8014BD9
:102FA000A3F10103A2F10102F1E700F0010301F036
:102FB0000104A34200D094E0012B44D311F8014B4B
:102FC00000F8014BA3F10103A2F10102F4E7B2F50D
:102FD000B47F26D3B1E8F81FA0E8F81FB1E8F81FC6
:102FE000A0E8F81FB1E8F81FA0E8F81FB1E8F81F43
:102FF000A0E8F81FB1E8F81FA0E8F81FB1E8F81F33
:10300000A0E8F81FB1E8F81FA0E8F81FB1E8F81F22
:10301000A0E8F81FB1E8F81FA0E8F81FA2F5B47205
:10302000D5E7282A06D3B1E8F81FA0E8F81FA2F1D7
:103030002802F6E7042A06D351F8043B40F8043B83
:10304000A2F10402F6E7202A42D331F8023B20F82D
:10305000023B31F8023B20F8023B31F8023B20F8FA
:10306000023B31F8023B20F8023B31F8023B20F8EA
:10307000023B31F8023B20F8023B31F8023B20F8DA
:10308000023B31F8023B20F8023B31F8023B20F8CA
:10309000023B31F8023B20F8023B31F8023B20F8BA
:1030A000023B31F8023B20F8023B31F8023B20F8AA
:1030B000023B31F8023B20F8023B31F8023B20F89A
:1030C000023B31F8023B20F8023BA2F12002BAE7B2
:1030D000022A06D331F8023B20F8023BA2F1020299
:1030E000F6E7102A42D311F8013B00F8013B11F832
:1030F000013B00F8013B11F8013B00F8013B11F8DE
:10310000013B00F8013B11F8013B00F8013B11F8CD
:10311000013B00F8013B11F8013B00F8013B11F8BD
:10312000013B00F8013B11F8013B00F8013B11F8AD
:10313000013B00F8013B11F8013B00F8013B11F89D
:10314000013B00F8013B11F8013B00F8013B11F88D
:10315000013B00F8013B11F8013B00F8013B11F87D
:10316000013B00F8013BA2F11002BAE7012A06D3A5
:1031700011F8013B00F8013BA2F10102F6E7BDE8BE
:10318000F81F704770470000002400BF1DE000BF1B
:1031900000BFFDF729FF044600BFFDF75AFF00BF3F
:1031A000FA480068401CF9490860F9480068401C6A
:1031B000F749086000BFFDF72DFF00BF2046FDF76F
:1031C00017FF00BF00BF08F089F9E0E710B58AB02B
:1031D00004460020ED4908600B2000210591CDE94F
:1031E000070406910846EB490968EB4A1268EB4B65
:1031F0001B68CDE90132CDE903101F200023AFF297
:103200007702E7A10090EB4805F023F90AB010BD62
:1032100000210AE001EB4102E74B03EB82000022B0
:103220000281026042604A1CD1B22029F2D3704769
:1032300070B5044608F05AF90020E0490870E049EA
:103240000870E0490870E0490860E0490860E0491A
:103250000870E0490870E0490870E0490860E049FA
:103260000860E0490860E0490870E04800680A2109
:10327000B0FBF1F0DE490860DE48006858B1DE4876
:10328000056845B1DB48066803E0761E002028602B
:103290002D1D002EF9D10020D8490860D8490860BA
:1032A000D8490860D8490860D8490860D8490860FA
:1032B000D8490860D849087003F01AFAFFF7A8FF48
:1032C000204601F068FF208800B170BD204602F062
:1032D000CBFA208800B1F8E7204602F0D7FA208820
:1032E00000B1F2E7204603F0EBF9208800B1ECE7EB
:1032F000204603F025FF208800B1E6E7204604F0D1
:10330000BDFB208800B1E0E7204606F0D1FE208812
:1033100000B1DAE7204602F0CCF8208800B1D4E70B
:103320002046FFF753FF208800B1CEE7204607F084
:103330002EF8208800B1C8E7204604F0AEFE2088B1
:1033400000B1C2E7204608F024F8208800B1BCE7AD
:1033500000F052FEFFF716FF00BFB6E7984800786E
:10336000012800D0704795480078FA2800DBF9E77B
:1033700092480078401C9149087000BFF2E710B5F0
:1033800000248F480078012800D010BD00BFFDF751
:103390002BFE044600BF8948007828B900BF2046AC
:1033A000FDF726FE00BFF0E784480078401E834901
:1033B000087008460078002805DD00BF2046FDF7AC
:1033C00017FE00BFE1E77F480078002805DD00BF59
:1033D0002046FDF70DFE00BFD7E703F093F97D49C6
:1033E00008700846007800EB4000734951F820004F
:1033F000764908600846006873490968884205D123
:1034000000BF2046FDF7F4FD00BFBEE76F4800682F
:10341000D0F89000401C6D490968C1F890007F48C1
:103420000068401C7D4908604FF080507C4908606E
:1034300000BF2046FDF7DCFD00BF00BFA5E710B5CB
:1034400000245E480078002800DD10BD5D4800784B
:10345000002800DDF9E700BFFDF7C6FD044600BF08
:1034600003F050F95B4908700846007800EB400013
:10347000514951F8200055490860084600685249F2
:103480000968884205D100BF2046FDF7B1FD00BFA5
:10349000DBE74E480068D0F89000401C4B490968B3
:1034A000C1F890005D480068401C5C4908604FF01E
:1034B00080505B49086000BF2046FDF799FD00BFC2
:1034C00000BFC2E710B53F480078012803D1FDF7DF
:1034D00021FD4249086010BD70B5044600253748FB
:1034E0000078002803DD46F66250208070BD344825
:1034F0000078012803D045F689602080F6E731483E
:103500000078FA2803DB45F209202080EEE700BFAF
:1035100000BFFDF769FD054600BFFDF79AFD00BF3E
:1035200028480078401C27490870FFF7CBFF00BFF0
:10353000FDF770FD00BF2846FDF75AFD00BF00BF34
:103540000020208000BFD1E710B51E48007880B968
:10355000FDF7E0FC21490968441A21480068A042AF
:1035600001D21F4804601F480068A04201D21D48D4
:10357000046010BD70B5044600251048007800288E
:1035800050DD46F66550208070BD000068000020C8
:10359000D40000208CBE000888BE000884BE00084D
:1035A00075432F4F532D4949492049646C65205478
:1035B00061736B0014820020B08300206C00002037
:1035C00074000020BC00002014010020180100201D
:1035D000A2000020A3000020A4000020B0000020D2
:1035E000B4000020B8000020C4000020E4BE0008A1
:1035F000C0000020B4BE0008B0BE00084C0000208F
:103600005000002054000020580000205C000020E2
:103610006000002064000020F2000020E80000208C
:1036200004ED00E0FA480078012803D045F68960EF
:10363000208070BDF748007818B946F664502080A5
:10364000F7E700BF00BFFDF7CFFC054600BFFDF761
:1036500000FD00BFEF480078401EEE4908700846A4
:10366000007800280CDD00BFFDF7D4FC00BF284621
:10367000FDF7BEFC00BF00BF46F663502080D8E7D0
:10368000FFF762FF00BFFDF7C5FC00BF2846FDF74E
:10369000AFFC00BF00BFFFF7D2FE0020208000BFBC
:1036A000C7E72DE9F04105460C461646002700BF46
:1036B00000BFFDF799FC074600BFFDF7CAFC00BF3D
:1036C000012D03D00020D449087002E00120D24926
:1036D000087014B1D148046006E0D14800680A219E
:1036E000B0FBF1F0CD49086000BFFDF793FC00BFCF
:1036F0003846FDF77DFC00BF00BF00203080BDE8EC
:10370000F08110B501460C8924B1012C03D0022CA4
:103710000CD101E000BF14E008684A68026100248F
:10372000C4601461D0600A6048600AE008684A68B2
:10373000C36800241C61C4600261D0600B604860F3
:1037400000BF00BF10BD2DE9F04104460027B54879
:103750000078002804DD48F2D1402080BDE8F081E7
:10376000AC480078002803DD46F663502080F5E77A
:10377000A9480078012803D046F67B102080EDE7A9
:1037800000BF00BFFDF730FC074600BFFDF761FC3E
:1037900000BFA548007800EB4000A44901EB80067B
:1037A000308902280CDA00BFFDF734FC00BF384630
:1037B000FDF71EFC00BF00BF46F67A102080CDE763
:1037C0003046FFF79EFF3568686D18B9934800686A
:1037D000A86501E0686DA86500BFFDF71BFC00BF90
:1037E0003846FDF705FC00BF00BFFFF728FE0020AC
:1037F000208000BFB2E710B5044685480078E8B9DC
:1038000002F080FF8A4908700846007886490870EF
:103810008748007800EB4000844951F82000854932
:1038200008600846006884490860012078490870EB
:1038300008F094F943F69920208002E045F68A606A
:10384000208010BD01460020088047F25D6070476F
:1038500030B548B14568C1F8C45000F10804226889
:1038600093681D6AC56113E091F83450022D02D0AF
:10387000072D08D103E071A5C1F8C45007E071A578
:10388000C1F8C45003E072A5C1F8C45000BF00BF26
:1038900030BDF0B58E6896F8375007893FB90127DB
:1038A000078100274F600F600160416023E00789B6
:1038B0007F1C0781026806E0946894F83770AF4275
:1038C00000DD02E05268002AF6D100BF32B90027BD
:1038D0004F6043680B60596041600CE017682FB976
:1038E000116000270F604A60016004E013680B60FC
:1038F0004A6059601160F0BD10B5C28701630023B2
:103900000AE000244C600C600C614C610C83CC61BB
:10391000886020315C1CA3B29342F2DB10BD2DE91C
:10392000F041054695F8370000EB40003F4901EBB8
:1039300080042F69EE6887B946B900202081206095
:10394000606095F8370002F0FFFE0EE02089401E0F
:10395000208100203061266007E02089401E208100
:10396000FE600EB9676000E0376100202861E86002
:10397000BDE8F08138B504460D4685B16B4602229C
:103980002946204606F044FDBDF8000018B9032082
:1039900084F8360006E0022084F8360002E00220B7
:1039A00084F836002046FFF7BAFF38BD2DE9F04114
:1039B00005460C4616461F461F48006880F83460CE
:1039C00000201D49096881F8350039461A48006809
:1039D000FFF7D0FF6CB104F10808EC600122294622
:1039E00015480068FFF788FF29464046FFF751FF5A
:1039F00006E0002010490968C8870F490968086374
:103A00000D4801682046FFF723FFBDE8F081000064
:103A100074000020BC000020C4000020C000002072
:103A2000E4BE00086C000020A2000020B08300204B
:103A3000A300002018010020140100205461736BC2
:103A4000205100005461736B2053656D000000002D
:103A50002000000010B50489012C03D1002404606B
:103A6000446011E00C6824B94A68002414600260C4
:103A70000AE04C6824B90B6800245C60436003E0F2
:103A80000B684A685A6013600489641E048100242C
:103A90004C600C6010BD2DE9F0410446256BE68FAB
:103AA0000AE0D5F80C8008F1080729463846FFF7E8
:103AB000D1FF2035701E86B2002EF2DC0020E08798
:103AC0002063BDE8F08130B50346086BCC8F08E079
:103AD000C5689D4202D10361C26104E02030651EC9
:103AE000ACB2002CF4DC00BF30BD10B590F837301C
:103AF00003EB4303FE4C04EB83010B893BB9012329
:103B00000B810023C36003610860486009E00B89F2
:103B10005B1C0B810B68C360002303610A681061A2
:103B2000086010BD10B590F8373003EB4303F04C3C
:103B300004EB83010B893BB901230B810023C36094
:103B400003610860486008E00B895B1C0B8100235F
:103B5000C3604A680261D060486010BD10B5044679
:103B600094F8370002F0E0FD94F83700E149097855
:103B7000884203D12046FFF7D5FF02E02046FFF739
:103B8000B4FF10BD10B50446204606F0B7FA94F80D
:103B9000360010F0040F02D12046FFF7DFFF10BD02
:103BA00070B505460C46164694F8360008284DD2E6
:103BB000DFE800F00405080906072A2B00BF00BF54
:103BC00000BF44E000BF94F83400032804D132461B
:103BD00021462846FFF777FF0020E065A4F8600043
:103BE000266415B12046FFF756FF2046FFF7CAFFAF
:103BF000002004F13404A0704FF0010060704FF019
:103C0000000004F8340922E000BF94F834000328CF
:103C100004D1324621462846FFF755FF0020E065D3
:103C2000A4F86000266415B12046FFF734FF204653
:103C300006F064FA042004F13404A0704FF001008F
:103C400060704FF0000004F8340900E000BF00BFCE
:103C500070BD30B5AFF20825C1F8C45000F10804BA
:103C600022681AB193681D6AC56102E0AFF220258F
:103C7000C56130BD2DE9F04304460F4684F8377026
:103C8000256BB4F83E8013E0D5F80C9009F10806D6
:103C90003089012807D929463046FFF7DBFE29463F
:103CA0003046FFF7F6FD2035A8F101001FFA80F835
:103CB000B8F1000FE8D1BDE8F08300210160416058
:103CC0000181704703895B1C038103684B600023FB
:103CD0000B60026802B1116001600389012B00D101
:103CE0004160704730B50346086BCC8F08E0C5686B
:103CF0009D4202D10361C26104E02030651EACB276
:103D0000002CF4DC00BF30BD70B506460C461546ED
:103D100094F8360008284BD2DFE800F004050809C3
:103D20000607292A00BF00BF00BF42E000BF94F889
:103D30003400032804D12A4621463046FFF7D2FF3B
:103D40000020E065A4F8600025642046FFF7A3FE8C
:103D50002046FFF717FF002004F13404A0704FF055
:103D6000020060704FF0000004F8340921E000BF49
:103D700094F83400032804D12A4621463046FFF740
:103D8000B1FF0020E065A4F860002564204606F03D
:103D9000B5F92046FFF77FFE042004F13404A0703B
:103DA0004FF0020060704FF0000004F8340900E0AA
:103DB00000BF00BF70BDF0B50446059E086BCD8FF7
:103DC0000AE0C768A74204D1046142610383C66167
:103DD00004E020306F1EBDB2002DF2DC00BFF0BD4C
:103DE0002DE9F84306460C4617469846089D94F878
:103DF0003600082853D2DFE800F00405080906075A
:103E00002C2D00BF00BF00BF4AE000BF94F8340073
:103E1000032807D143463A46214630460095FFF72E
:103E2000CAFF03E0E765A4F86080256436B1204648
:103E3000FFF731FE21463046FFF70BFF2046FFF724
:103E4000A1FE002004F13404A070607004F834096D
:103E500026E000BF94F83400032807D143463A46D1
:103E6000214630460095FFF7A6FF03E0E765A4F87A
:103E700060802564204606F041F936B12046FFF700
:103E80000AFE21463046FFF7E4FE042004F1340424
:103E9000A0704FF00000607004F8340900E000BF2B
:103EA00000BFBDE8F88310B5002400BFFDF79CF803
:103EB000044600BF002010490870104810490860EF
:103EC00008460068D0F89000401C0968C1F89000CE
:103ED0000C480068401C0B4908604FF080500A49AC
:103EE000086000BF2046FDF783F800BF10BD00004A
:103EF000B0830020A2000020A3000020DC8200206C
:103F000018010020E800002004ED00E070B505462F
:103F1000002635480078012800D070BD00BF00BFE2
:103F2000FDF762F8064600BFFDF793F800BF2C6866
:103F30004CB900BFFDF76EF800BF3046FDF758F8EA
:103F400000BF00BFE9E72948844209D100BFFDF75F
:103F500061F800BF3046FDF74BF800BF00BFDCE75B
:103F6000A06D10B1A06D401EA065A06D48B100BF4E
:103F7000FDF750F800BF3046FDF73AF800BF00BF2C
:103F8000CBE72889022809DA00BFFDF743F800BF14
:103F90003046FDF72DF800BF00BFBEE7144800789B
:103FA000002809DD00BFFDF735F800BF3046FDF7FA
:103FB0001FF800BF00BFB0E72846FFF7A2FB2C6840
:103FC000606D18B90B480068A06501E0606DA065E0
:103FD00000BFFDF71FF800BF3046FDF709F800BF2E
:103FE00000BF00BF99E70000C40000201482002039
:103FF000BC000020C0000020254A2649264A274A46
:104000002749284A2848294A294A2A4A2A4A2B481D
:104010002B482C482C4A2D482D4A2E482E4A2F48F2
:104020002F4830483048314A314A324A3248334AC0
:10403000334A344834483548354836483648374896
:10404000374A384A384A394A39483A483A483B4A5E
:104050003B4A3C4A3C483D483D483E493E483F4A31
:104060003F4A404A404A414A414A424A4248434AFA
:10407000434A44484448454A454A4648464A474ACE
:1040800047484848484800BF00BF00BF704700008D
:1040900028BF000890C0000829BF00082ABF0008F8
:1040A0002CBF000830BF000834BF000831BF000833
:1040B0005CBF00085DBF00085EBF000860BF00086D
:1040C00062BF000864BF000866BF000868BF000840
:1040D00088BF00088ABF00088CBF00088EBF000898
:1040E00090BF000892BF000894BF0008C0BF00083E
:1040F000C1BF0008C2BF0008C4BF0008C6BF000897
:10410000C7BF0008C8BF0008CABF0008CCBF00086E
:10411000CEBF0008D0BF0008D2BF0008D4BF00083F
:1041200004C0000805C0000806C0000807C0000859
:1041300008C000080AC000080CC0000834C000080D
:1041400035C0000836C0000837C0000838C0000875
:104150003AC000083CC0000840C0000841C0000848
:1041600042C0000843C0000844C0000845C0000821
:1041700046C0000847C0000848C000084AC0000800
:104180004BC000084CC000084EC0000850C00008DA
:1041900051C0000854C0000888C0000889C0000849
:1041A0008AC000088CC000088EC00008FCA1C16154
:1041B00000214161FB49096811B90021816105E0D5
:1041C000F84909688161F74909684861F54908605B
:1041D00070472DE9F04104460E4617461D464FF044
:1041E0000008F1480078002804DD42F6E1602880EC
:1041F000BDE8F0811CB945F6C3502880F8E700BF40
:1042000000BF00BFFCF7F0FE804600BFFCF721FFB7
:1042100000BFE6480078401CE44908700846007872
:10422000012801D1FFF74EF900BFFCF7F3FE00BFF4
:104230004046FCF7DDFE00BF00BF00BFDC48206049
:10424000666027620020606204F10800FFF735FD18
:104250002046FFF7ABFFD7480088401CD5490880AF
:1042600000BF00BF00BFFCF7BFFE804600BFFCF7E9
:10427000F0FE00BFCD480078401ECC4908700846CB
:10428000007808B9FFF760F900BFFCF7C3FE00BF74
:104290004046FCF7ADFE00BF00BF00BF00202880F5
:1042A00000BFA5E770B50446C3482060C3A06060A6
:1042B0000020206204F108052846FFF7FEFC70BDCF
:1042C000426981693AB9B74B196009B100234B6162
:1042D0000023836109E019B900239361436104E07D
:1042E00091614A6100238361436170472DE9FC5F5E
:1042F00005468846144600200090AB480078002808
:1043000005DD43F2C92020800020BDE8FC9F25B9CF
:1043100045F6C35020800020F7E7B8F1000F03D026
:10432000B8F1010F02D100E000BF04E045F62560BE
:1043300020800020E9E700BF9D492868884204D01A
:1043400045F6C45020800020DFE700BF00BF00BF5B
:10435000FCF74AFE009000BFFCF77BFE00BF9348CD
:104360000078401C9149087008460078012801D166
:10437000FFF7A8F800BFFCF74DFE00BF0098FCF760
:1043800037FE00BF00BF00BF05F10809B9F808609B
:104390003746B8F1000F03D0B8F1010F74D182E0B5
:1043A000002F44D12846FFF78BFF82480088401E2B
:1043B000804908802846FFF775FF00BF00BF00BF97
:1043C000FCF712FE009000BFFCF743FE00BF7748E9
:1043D0000078401E7549087008460078D0B9FFF78C
:1043E000B3F87848008800280BDD00BFFCF712FE08
:1043F00000BF0098FCF7FCFD00BF00BFFFF753FDB6
:1044000011E000BFFCF706FE00BF0098FCF7F0FDCE
:1044100000BF08E000BFFCF7FDFD00BF0098FCF7FF
:10442000E7FD00BF00BF00BF002020803AE000BFD2
:1044300000BF00BFFCF7D8FD009000BFFCF709FEED
:1044400000BF5A480078401E584908700846007856
:10445000D8B9FFF779F85B48008800280BDD00BF6A
:10446000FCF7D8FD00BF0098FCF7C2FD00BF00BFFD
:10447000FFF719FD12E000BFFCF7CCFD00BF00986C
:10448000FCF7B6FD00BF09E04CE000BFFCF7C2FD41
:1044900000BF0098FCF7ACFD00BF00BF00BF47F2B3
:1044A0005F10208079E0FCF735FD01900AE0D9F833
:1044B00000A0DAF808B059462846019AFFF724FC14
:1044C000701E86B2002EF2D12846FFF7F9FE394859
:1044D0000088401E374908802846FFF7E3FE00BFEA
:1044E00000BF00BFFCF780FD009000BFFCF7B1FDEE
:1044F00000BF2E480078401E2C49087008460078FE
:1045000008B9FFF721F800BFFCF784FD00BF009851
:10451000FCF76EFD00BF00BF00BFFEF790FF00205C
:1045200020803AE000BF00BF00BFFCF75DFD0090B7
:1045300000BFFCF78EFD00BF1C480078401E1B49E1
:10454000087008460078D0B9FEF7FEFF1D480088C5
:1045500000280BDD00BFFCF75DFD00BF0098FCF7F5
:1045600047FD00BF00BFFFF79EFC11E000BFFCF756
:1045700051FD00BF0098FCF73BFD00BF08E000BF05
:10458000FCF748FD00BF0098FCF732FD00BF00BFFC
:1045900000BF45F62560208000BF00BF3846B4E666
:1045A000200000008C0000206C000020BC000020D7
:1045B000464C4147900000204E4F4E453F464C41EF
:1045C00047000000800000202DE9F04106460F461C
:1045D00014461D46DDF81880FE480068C0F880408B
:1045E000FC480068A0F888500020FA490968C1F822
:1045F00084004346012239463046FFF7D7F9BDE82B
:10460000F0812DE9F04F8BB00546884693469946D8
:10461000DDE9147400200190EF480078002806DDE1
:1046200046F2AE10208000200BB0BDE8F08F25B917
:1046300045F6C35020800020F6E748F20101A9EBBF
:104640000100894537D01ADC40F20111A9EB0100C5
:1046500089452CD00CDCB9F1010F24D0B9F1020F3F
:1046600022D0B9F1040F20D0B9F1080F2BD11DE0F1
:1046700001281DD003281CD0072824D11AE0B0F54A
:10468000807F1CD006DC012816D0032815D007280F
:1046900019D113E0A0F58070013811D0022810D094
:1046A000062810D10EE000BF00BF00BF00BF00BF52
:1046B00000BF00BF00BF00BF00BF00BF00BF00BF02
:1046C00000BF00BF04E045F6256020800020ABE776
:1046D00000BFC2492868884204D045F6C4502080F3
:1046E0000020A1E719F4807F02D04FF0010A01E019
:1046F0004FF0000A0FB10020386009F00F000A9057
:1047000000BF00BFFCF770FC019000BFFCF7A1FCEC
:1047100000BF0A9801287CD002287BD0042802D050
:10472000082878D182E0286A00EA0806464519D1AF
:10473000BAF1010F02D1286AB0432862A548006887
:10474000C0F884600FB1686A386000BFFCF762FC93
:1047500000BF0198FCF74CFC00BF00BF0020208088
:10476000304661E719F4004F0DD000BFFCF752FC52
:1047700000BF0198FCF73CFC00BF00BF46F2B01040
:104780002080002050E79648007800280DDD00BF0B
:10479000FCF740FC00BF0198FCF72AFC00BF00BFFB
:1047A00046F66350208000203EE700BF8C4800782A
:1047B000401C8B49087008460078012801D1FEF79B
:1047C00081FE00BFFCF726FC00BF0198FCF710FC3F
:1047D00000BF00BF00BF4B464246294602A8CDF8A5
:1047E00000B0FFF7F1FE00BF00BF00BFFCF7FCFB0D
:1047F000019000BFFCF72DFC00BF79480078401EF7
:10480000774908700846007808B9FEF79DFE00BF9A
:1048100002E089E010E18DE1FCF7FCFB00BF0198AC
:10482000FCF7E6FB00BF00BF00BF91E1286A00EA89
:104830000806CEB1BAF1010F02D1286AB04328624E
:1048400064480068C0F884600FB1686A386000BFCF
:10485000FCF7E0FB00BF0198FCF7CAFB00BF00BFFC
:10486000002020803046DFE619F4004F0DD000BF55
:10487000FCF7D0FB00BF0198FCF7BAFB00BF00BFFC
:1048800046F2B01020800020CEE65548007800287F
:104890000DDD00BFFCF7BEFB00BF0198FCF7A8FBD5
:1048A00000BF00BF46F6635020800020BCE600BF7A
:1048B0004B480078401C4A49087008460078012897
:1048C00001D1FEF7FFFD00BFFCF7A4FB00BF01987C
:1048D000FCF78EFB00BF00BF00BF4B464246294697
:1048E00002A8CDF800B0FFF76FFE00BF00BF00BF09
:1048F000FCF77AFB019000BFFCF7ABFB00BF384828
:104900000078401E364908700846007808B9FEF75E
:104910001BFE00BFFCF77EFB00BF0198FCF768FBA5
:1049200000BF00BF00BF13E1286A28EA0006464521
:1049300019D1BAF1010F02D1286A30432862254803
:104940000068C0F884600FB1686A386000BFFCF787
:1049500061FB00BF0198FCF74BFB00BF00BF0020CC
:104960002080304660E619F4004F0DD000BFFCF700
:1049700051FB00BF0198FCF73BFB00BF00BF46F2B4
:10498000B010208000204FE61548007800280DDD8B
:1049900000BFFCF73FFB00BF0198FCF729FB00BFFD
:1049A00000BF46F66350208000203DE600BF0C4863
:1049B0000078401C0A49087008460078012801D197
:1049C000FEF780FD00BFFCF725FB00BF0198FCF758
:1049D0000FFB07E0140100206C000020464C41470B
:1049E000BC00002000BF00BF00BF4B464246294626
:1049F00002A8CDF800B0FFF7E7FD00BF00BF00BF81
:104A0000FCF7F2FA019000BFFCF723FB00BFF84867
:104A10000078401EF64908700846007808B9FEF78D
:104A200093FD00BFFCF7F6FA00BF0198FCF7E0FA2F
:104A300000BF00BF00BF8BE0286A28EA0006CEB1A5
:104A4000BAF1010F02D1286A30432862E9480068B0
:104A5000C0F884600FB1686A386000BFFCF7DAFA0A
:104A600000BF0198FCF7C4FA00BF00BF00202080FF
:104A70003046D9E519F4004F0DD000BFFCF7CAFA53
:104A800000BF0198FCF7B4FA00BF00BF46F2B010B7
:104A900020800020C8E5D648007800280DDD00BF42
:104AA000FCF7B8FA00BF0198FCF7A2FA00BF00BFFC
:104AB00046F6635020800020B6E500BFCC48007861
:104AC000401CCB49087008460078012801D1FEF748
:104AD000F9FC00BFFCF79EFA00BF0198FCF788FACA
:104AE00000BF00BF00BF4B464246294602A8CDF892
:104AF00000B0FFF769FD00BF00BF00BFFCF774FA0C
:104B0000019000BFFCF7A5FA00BFB9480078401E2D
:104B1000B74908700846007808B9FEF715FD00BFD0
:104B2000FCF778FA00BF0198FCF762FA00BF00BFFB
:104B300000BF0DE000BFFCF76DFA00BF0198FCF765
:104B400057FA00BF00BF45F62560208000206BE5C6
:104B500000BFFEF774FC00BF00BFFCF745FA0190F0
:104B600000BFFCF776FA00BFA248006890F8350055
:104B700030B101280CD002282CD003283CD119E0F8
:104B80001FB19C480068006C38600020208040E025
:104B90001FB198480068006C386000BFFCF73AFA13
:104BA00000BF0198FCF724FA00BF00BF46F2A9102D
:104BB00020802EE00FB10020386000BFFCF72AFAF9
:104BC00000BF0198FCF714FA00BF00BF47F2D920DC
:104BD00020801EE01FB187480068006C386000BF6D
:104BE000FCF718FA00BF0198FCF702FA00BF00BFFB
:104BF00045F6C25020800CE000BFFCF70BFA00BF66
:104C00000198FCF7F5F900BF00BF46F62E60208042
:104C100000BF00BF208808B1002005E57548006886
:104C2000D0F88460BAF1010F22D10A9801280BD084
:104C300002280AD0042802D008280AD100E000BFC8
:104C4000286AB043286212E000BF286A3043286215
:104C50000DE000BFFCF7DEF900BF0198FCF7C8F9D2
:104C600000BF00BF45F6256020800020DCE400BFC7
:104C700000BFFCF7CFF900BF0198FCF7B9F900BFFE
:104C800000BF002020803046CEE42DE9F05F0546CD
:104C90000E4614464FF0000A57480078002805DDFC
:104CA00046F2AA1020800020BDE8F09F25B945F605
:104CB000C35020800020F7E74EB1B6F5807F07D0C3
:104CC000B6F5004F05D0B6F5014F04D102E000BFA4
:104CD00000BF00BF04E045F6256020800020E3E728
:104CE00000BF46492868884204D045F6C450208059
:104CF0000020D9E700BF00BFFCF776F9824600BF6D
:104D0000FCF7A7F900BF05F10807388968B900BFAB
:104D1000FCF780F900BF5046FCF76AF900BF00BFFE
:104D200046F2AB1020800020BEE700BF304800787C
:104D3000401C2F49087008460078012801D1FEF771
:104D4000C1FB00BFFCF766F900BF5046FCF750F905
:104D500000BF00BF00BF4FF00008FCF7DBF8834640
:104D60000FE03868D0F808905A4649462846FEF7C2
:104D700017FF08F101001FFA80F8B6F5807F00D018
:104D800002E038890028ECDC00BF00BF00BF00BF94
:104D9000FCF72AF9824600BFFCF75BF900BF144814
:104DA0000078401E124908700846007808B9FEF7DE
:104DB000CBFB00BFFCF72EF900BF5046FCF718F9FB
:104DC00000BF00BF00BF16F4004F01D1FEF737FB54
:104DD00000202080404667E770B50446002606485C
:104DE000007800280CDD46F2AE102080002070BD57
:104DF000BC000020140100206C000020464C4147FC
:104E000000BF00BFFCF7F0F8064600BFFCF721F931
:104E100000BFE4480068D0F8845000BFFCF7FAF8FF
:104E200000BF3046FCF7E4F800BF00BF0020208040
:104E30002846DCE770B504460D46164604F13404F6
:104E400025654FF0000060702070E660A078A4F146
:104E50003404082816D2DFE800F004050809070624
:104E6000101100BF00BF00BF0DE000BF2046FEF7DD
:104E700089FE002084F8360005E000BF042084F895
:104E8000360000E000BF00BF2046FEF704FE70BD04
:104E90002DE9F04F85B00446894692469B46DDF8E1
:104EA00038800020009000BF00BFFCF79DF8009004
:104EB00000BFFCF7CEF800BFBAF1000F0BD0BAF17B
:104EC000010F0ED0BAF5004F06D06FF400401AEB78
:104ED00000000CD106E000BF206A40EA0900206211
:104EE00016E000BF206A20EA0900206210E000BF3F
:104EF000FCF790F800BF0098FCF77AF800BF00BFFD
:104F000045F62560A8F80000002005B0BDE8F08F48
:104F100000BFC4F824B004F1080001900198008992
:104F200068B900BFFCF776F800BF0098FCF760F89E
:104F300000BF00BF0020A8F80000206AE5E700BF1E
:104F400099480078401C9849087008460078012864
:104F500001D1FEF7B7FA00BFFCF75CF800BF00987C
:104F6000FCF746F800BF00BF00BF01980768BD68A6
:104F700089E07868029095F8880000F00F000390AF
:104F80000398012821D002282ED0042802D0082816
:104F900036D10EE0206AD5F8801000EA0106D5F877
:104FA0008000B04204D15A4631462846FFF742FFFE
:104FB00063E0206AD5F8801000EA010626B15A465F
:104FC00031462846FFF736FF57E0D5F88000216AC2
:104FD00020EA0106D5F88000B04204D15A46314695
:104FE0002846FFF727FF48E0D5F88000216A20EA2D
:104FF000010626B15A4631462846FFF71BFF3CE022
:1050000000BF00BF00BFFBF7EFFF009000BFFCF741
:1050100020F800BF64480078401E634908700846C5
:105020000078D0B9FEF790FA6048008800280BDDC0
:1050300000BFFBF7EFFF00BF0098FBF7D9FF00BFF1
:1050400000BFFEF730FF11E000BFFBF7E3FF00BF3A
:105050000098FBF7CDFF00BF08E000BFFBF7DAFFC9
:1050600000BF0098FBF7C4FF00BF00BF00BF43F6BE
:10507000FF20A8F80000002047E700BF029F0FB103
:10508000BD6800E00025002D7FF473AF00BF00BFB6
:1050900000BFFBF7A9FF009000BFFBF7DAFF00BFDE
:1050A00041480078401E404908700846007808B919
:1050B000FEF74AFA00BFFBF7ADFF00BF0098FBF711
:1050C00097FF00BF00BF00BF1AF4004F01D1FEF7E9
:1050D000B6F900BF00BFFBF787FF009000BFFBF7EA
:1050E000B8FF00BF206A049000BFFBF793FF00BF2A
:1050F0000098FBF77DFF00BF00BF0020A8F800006C
:10510000049802E72DE9FF470546884617461C46E6
:1051100035B945F6C3502080002004B0BDE8F087C3
:105120004FB1012F08D0B7F5004F06D06FF4004003
:10513000381804D102E000BF00BF00BF04E045F60C
:10514000256020800020E8E700BF194928688842D0
:1051500004D045F6C45020800020DEE7FBF7DAFEDD
:1051600006461448007800280BDD00231A4629461D
:105170000F48CDE90087CDE9026400F021F8002056
:10518000CBE733463A46414628460094FFF780FE77
:1051900081464846C1E70021074A1160074A11804D
:1051A0000180704714010020BC0000208000002016
:1051B000464C41476C0000208C00002090000020ED
:1051C0002DE9F84F04460D4616461F46DDE90BABA8
:1051D000DDF82890DDF834800020009000BF00BF8B
:1051E000FBF702FF009000BFFBF733FF00BFE5486D
:1051F0000088E549098888423EDAE2480088401C78
:10520000E0490880E14800880988884203DADD48DF
:105210000088DE490880DE4800680460DC480068D9
:105220008560DB480068C660D94800680782D848B6
:105230000068C0F81490D6480068A0F818A0D448B8
:105240000068C0F81CB0D24800684068D0490860C7
:105250000120D0490881D04808604860002001F052
:1052600063FACE48007818B1CC480078CC49087071
:105270000020A8F8000008E0CA480088401CC9497E
:10528000088044F25360A8F8000000BFFBF7C2FE9C
:1052900000BF0098FBF7ACFE00BF00BFBDE8F88F71
:1052A0003EB5C14800680068C04A811A90427CD06F
:1052B0000CDCBF49401839D0BE49401810D0BE4957
:1052C00040185CD0BD49401867D13CE0BC48081884
:1052D0004ED0BC49401861D0BB494018F4D110E011
:1052E00002A8B14D00902D68EB69AF4D2D682A8B57
:1052F000AD4D2D686969AC4D2D68A868FFF7C8FDF4
:105300007AE002A9A8480068C069A74DCDE900016C
:105310002D682B8BA44D2D682A8AA34D2D68E96832
:10532000A14D2D68A86801F0ECFD65E09E4B1B685F
:10533000DA699D4B1B68198B9B4B1B68986802AB05
:1053400002F041FA58E002A997480068C069964DFA
:10535000CDE900012D682B8B934D2D682A8A924D43
:105360002D68E968904D2D68A86803F01BFD43E0A7
:105370008D490968886802A903F00AFF3CE08A4B5E
:105380001B68DA69884B1B68198B874B1B68986808
:1053900002AB04F0CDF92FE007E02CE08249096868
:1053A000886802A904F05BFD26E07D49097801EBDD
:1053B0004101784A02EB8100FEF7A8FD7A480068B7
:1053C00002AB0021C269814804F0B2F9804800684C
:1053D000401E7F4908600846006858B97D4800684B
:1053E0000860FBF797FD044602AB224600217A488D
:1053F00004F09EF900E000BF00BF3EBD002700BFE3
:1054000056E0002652E000BF00BFFBF7EDFD074667
:1054100000BFFBF71EFE00BF5A48008898B9002065
:105420005C4908810860486001F08EF900BFFBF715
:10543000F1FD00BF3846FBF7DBFD00BF00BFFDF705
:10544000FEFF012632E000BFFBF7E4FD00BF384657
:10545000FBF7CEFD00BF00BFFBF75CFD0546FFF785
:105460001FFFFBF757FD441B5C480068A04201D2B8
:105470005A48046000BF00BFFBF7B6FD074600BFF7
:10548000FBF7E7FD00BF48480068406846490860F0
:105490003C480088401E3B49088000BFFBF7BAFD2E
:1054A00000BF3846FBF7A4FD00BF00BF002EAAD006
:1054B000A7E7F0B589B0054600203A49088048487A
:1054C000006820B944F25260288009B0F0BD2E482F
:1054D0000088022803DA44F254602880F5E70020AF
:1054E0003E4908603E4804682646203600270CE006
:1054F0003C4820600020A060E06020826061208342
:10550000666020342036781C87B21F4800888742A6
:10551000EEDB203C3248066866601D480660224883
:105520000660002017490880184908802E48006846
:1055300018B944F255602880C7E72C4800682C4908
:105540000968884203D244F256602880BDE70320F0
:1055500000210591CDE90705069124480068254AF8
:105560001268214B1B68CDE90301CDE9013200919E
:105570000B46AFF2771220A1074802F06AFF00BF86
:10558000A3E700008000002098BE000882000020F1
:1055900078000020B0830020DC820020A2000020E0
:1055A000A4000020840000207C0000205449434BCC
:1055B000ADBAB2BE0DF90BFAF2F8F7FF0006F6FF2E
:1055C00000F7FDF700FFEFFF03FE0FFEF885002058
:1055D000100100200C010020C0860020880000205F
:1055E00094BE00084E4F4E45A0BE0008A8BE00085D
:1055F000E0BE0008A4BE000875432F4F532D494953
:105600004920495352205175657565205461736B6B
:1056100000000000002181619749096811B900214B
:10562000C16105E094490968C161934909688861CD
:105630009149086070472DE9FF4F83B00446154635
:105640001F46DDE91096002000908C480078002865
:1056500005DD45F2B960308007B0BDE8F08F1DB9B7
:1056600045F2BB603080F7E7022F03DA45F2BC60F9
:105670003080F1E7B9F1040F03D245F2C160308008
:10568000EAE74FF0030ABAF1000F0DD015EA0A0F4E
:1056900003D045F2BB603080DEE719EA0A0F03D081
:1056A00045F2C1603080D7E7AB46A846781E80B28D
:1056B00001900020029007E0C844CBF80080C34668
:1056C0000298401C80B20290DDE901108842F3DBB1
:1056D0000020CBF8000000BF00BF00BFFBF784FC38
:1056E000009000BFFBF7B5FC00BF65480078401C88
:1056F0006349087008460078012801D1FDF7E2FEF1
:1057000000BFFBF787FC00BF0098FBF771FC00BFF0
:1057100000BF00BF5B4820600498A0606560E56042
:10572000A7826782A4F810902046FFF773FF5648BF
:105730000088401C5449088000BF00BF00BFFBF731
:1057400053FC009000BFFBF784FC00BF4C4800787E
:10575000401E4B4908700846007808B9FDF7F4FE72
:1057600000BFFBF757FC00BF0098FBF741FC00BFF0
:1057700000BF00BF0020308000BF6DE72DE9F04181
:1057800004460D4600272CB945F2BF602880002052
:10579000BDE8F08100BF00BFFBF726FC074600BF55
:1057A000FBF757FC00BFA08A68B900BFFBF732FCCB
:1057B00000BF3846FBF71CFC00BF00BF45F2C260CB
:1057C00028800020E4E7E6683068E060A08A401E98
:1057D000A08200BFFBF71EFC00BF3846FBF708FCA9
:1057E00000BF00BF002028803046D1E72DE9F041FE
:1057F00004460E461546002724B945F2BF602880AE
:10580000BDE8F0811EB945F2BE602880F8E700BF10
:1058100000BFFBF7E9FB074600BFFBF71AFC00BF20
:10582000A08A618A88420CDB00BFFBF7F3FB00BF54
:105830003846FBF7DDFB00BF00BF45F2BA602880A9
:10584000DEE7E0683060E660A08A401CA08200BF0E
:10585000FBF7E0FB00BF3846FBF7CAFB00BF00BF09
:105860000020288000BFCBE70021034A1160064AD0
:105870001180018070470000940000206C0000201F
:10588000BC0000204D454D209800002070B5014619
:10589000844D2D681DB945F21E750D8070BD824D79
:1058A0002D881DB945F21D750D80F7E77D4D2868DF
:1058B0002A6810327C4D2D886D1EACB2002308E0A2
:1058C0000260002545600581C560103010325D1C06
:1058D000ABB2A342F4DB0025056045600581C560DD
:1058E000704D2D68714E35606F4D2D88B580002547
:1058F000F58035810D8000BFD0E710B5014648899D
:105900004B89002B17DD0A68684B1B681360674CD6
:105910004B6823602346DB884C891B1B634CE38068
:1059200023469B884C892344604CA38000234B81F1
:105930008B810B604B6010BD01810022428182810E
:10594000026042607047F0B504460D46608940B978
:105950000020288002B1106046F29250188000208A
:10596000F0BD61684E68088928800AB1C868106077
:1059700008686060606818B900202060608102E0FB
:105980006089401E6081494800680860474801609E
:105990008088401C454FB8803846C088401EF8803B
:1059A000002018803046DBE72DE9F0410D46DDE9A7
:1059B0000674B0F80AC0B0F80880C44505DB46F2AA
:1059C000935CA4F800C0BDE8F081DFF8E0C0BCF84B
:1059D00004C0BCF1000F04D145F21D7CA4F800C046
:1059E000F1E7DFF8C8C0DCF80010DFF8C080D1F8BC
:1059F00000C0C8F800C0C446BCF804C0ACF1010C3B
:105A0000A8F804C0C446BCF806C00CF1010CA8F804
:105A100006C0C446BCF808C0B8F80680C44507DA1A
:105A2000DFF888C0BCF806C0DFF88080A8F808C09E
:105A3000B0F80AC0BCF1000F0AD1016041604FF01C
:105A4000010CA0F80AC04FF0000CC1F800C015E02E
:105A500013F0100F07D10668316001604FF0000CA1
:105A6000C1F800C004E0D0F804C0C1F800C0416033
:105A7000B0F80AC00CF1010CA0F80AC0B0F80CC0D4
:105A8000B0F80A80C44503DAB0F80AC0A0F80CC028
:105A90004D600A81CF604FF0000CA4F800C000BF39
:105AA00091E70000C4BE0008BCBE0008A48300202B
:105AB000F9A1C16100214161F849096811B90021CA
:105AC000816105E0F54909688161F4490968486127
:105AD000F249086070472DE9F04104460E4615462C
